:100000000C941D160C944E160C944E160C944E1611
:100010000C944E160C944E160C944E160C944E16D0
:100020000C944E160C944E160C944E160C944E16C0
:100030000C944E160C944E160C944E160C944E16B0
:100040000C944E160D9493910C944E160C944E16DF
:100050000C944E160C944E160D9451B00D94FBB4A6
:100060000C944E160D942BB90D9461B90C944E1648
:100070000C944E160C944E160C944E160C944E1670
:100080000C944E160C944E160C944E160C944E1660
:100090000C944E160C944E160C944E160C944E1650
:1000A0000C944E160C944E160C944E160C944E1640
:1000B0000C944E160C944E160C944E160C944E1630
:1000C0000C944E160C944E160C944E160D94D6B9F4
:1000D0000D940CBA0C944E160C944E160C944E16AD
:1000E0000C944E16D1A3C1A4C4A59AA5E6A472A5EA
:1000F0004AA5F9A321A449A449A671A699A6C1A617
:1001000099A471A422A5B502B1010F0308FDB101A4
:1001100065F3B101ADF3B101B101FF0257F4B101D3
:10012000B1014FF24AF2B1016502B101B101B10171
:100130000303EB0297024902A502B1014D02170326
:100140005702B701EF02C5029D02D8FCE702B101D8
:1001500089F3EDF2B10130FCBF02AEFCF702B10150
:1001600084FC5AFC9F022702B101BF019302AD0239
:100170002302D8F35EF254F2B101F302DFF5BB01C2
:10018000B1011F0399F70F02B302B1018D02D3022F
:100190006D02E901CD02D102FD024AF6AF02AF02C3
:1001A0001D02BD02C501DEF76EF485F40FF444F8BC
:1001B00045F259F2B101B101B1015D021AF96FF9CD
:1001C000B1F40D02FB01BB02E5028B02DB01D70299
:1001D0008102C70271020703250275024502C701A9
:1001E000FD01CF0201028902B902F3014F0295021B
:1001F000D901B1019902A3F8C5F906FB5D027702A6
:10020000F901EF016F02C902FB025F026102B10254
:10021000A7F213023302B101B101F701B1016B0280
:10022000B3014302AB02CD010902E102A9020B02B4
:100230002B020103D3FFBFFFD30138FD3FFE4CFF6C
:1002400086FF8502E4FFC1026302B101B101B10181
:10025000B101B101B101B101B101B101BF02D6F4E7
:1002600001F54CF5DF016702E3027F020F025F0236
:1002700011021F02B101A102D1010B03E301ED0143
:100280001B03B101D7018F0273027B02C10141023E
:10029000B101B101F5028702B90111032102310256
:1002A000CB01DD0159023502B101B101D502B10125
:1002B000B101FF01B10175F615031303EB0119023A
:1002C000D5019B02E101690253025102F9021502B4
:1002D0000702ED02370219032D02E9020D033D0268
:1002E000B5010502A302DB0203022D02DD021B029F
:1002F0004B028302A702F101F10247029102E701DA
:10030000C30217023B02F501BD010503E50191029D
:100310005B02DF023902084AD73B3BCE016E84BC48
:10032000BFFDC12F3D6C74319ABD56833DDA3D004F
:10033000C77F11BED9E4BB4C3E916BAAAABE000098
:1003400000803F05A84CCDB2D44EB93836A9020C76
:1003500050B9918688083CA6AAAA2ABE000000804F
:100360003F000D940F350D94CC130D9473B60D947E
:10037000E21D0D94862E0D9425270D9409B70D943A
:1003800087010D9408130D940C5E0D9472070D9463
:100390007C1C0D9481BA0D94DF2C0D949B090D9457
:1003A00093B90D94D32B0D94AB140D9429B10D94E6
:1003B00019100D9448200D94231A0D9436300D9485
:1003C000B7330D9450B10D94132B0D9411B70D94B8
:1003D000F1B60D945A060D9402B10D94782A0D943D
:1003E000FB030D94DCB60D94351F0D9403B70D94EB
:1003F000A8310D94B8030D94AF150D94A31C0D9462
:1004000084330D94F11C0D94A0B60D947DB60D941B
:1004100036B60D9408080D94CA090D94F5150D947F
:1004200050230D94E7270D9495340D9431B60D9417
:10043000FBB60D940FB10D94B4B60D945D030D94FD
:100440000E290D94452D0D944D170D94081C0D94F7
:10045000DC220D94C6B70D94590A0D94C8B60D94BC
:1004600044B80D94902C0D940E010D9452330D94BC
:1004700045B60D941FB70D94FFB60D9469B60D9453
:10048000E8B70D94EB2F0D94DC080D94561C0D94D9
:10049000E6B60D9429230D94BEB60D94981A0D94CA
:1004A0002C210D9456B10D9454B10D94193A0D941C
:1004B000621B0D945B310D9417B70D9425020D94BA
:1004C000F6260D9438220D94FA090D9454130D94C8
:1004D00035340D9452B10D9456150D942E2C0D9467
:1004E00063220D94BA1B0D94A02F0D942F1C0D9414
:1004F0008D030D9435BA0D9409120D9465B80D94C1
:10050000B8260D94711A0D94EAB60D94D1310D945C
:10051000F92D0D949C1E0D94FC190D944F290D94EA
:10052000200F0D9424B70D9461190D94B2200D94F1
:1005300002230D9473270D9436B10D94B0130D94CE
:10054000B5220D94512B0D9487B60D9499270D94D7
:10055000EDB60D946B090D943B090D94450D0D946A
:1005600043040D94200E0D94D6050D945A010D945C
:10057000BBB70D94131E0D94AF190D94E6060D94A0
:1005800083160D94DA000D94F5B60D94BE130D94F8
:10059000931B0D9401260D94013A0D94C3230D94E1
:1005A000CA1C0D9488190D94E70B0D94E1320D943B
:1005B0004A1A0D943EBA0D9496B60D94AAB60D94AF
:1005C0001BB70D940B090D9454260D94D6190D9458
:1005D0007D1D0D9459B60D943A190D943BB60D94AA
:1005E000181D0D94E0B60D94060B0D946E2D0D9410
:1005F0008E220D945EB10D9486260D94C0270D9425
:10060000DE110D942A0A0D9413190D940DB70D9453
:10061000E11B0D94D4B70D94A02A0D9461B60D94EE
:10062000B8010D94132F0D94E6B00D94D9B00D942C
:10063000FD1A0D944FB60D945F2C0D948AB90D944C
:100640004C27535543434553530056616C756573AE
:10065000206F7574206F662072616E676500566149
:100660006C756573206F7574206F662072616E679C
:10067000650056616C756573206F7574206F662018
:1006800072616E67650056616C756573206F757475
:10069000206F662072616E67650053554343455372
:1006A000530056616C756573206F7574206F6620FA
:1006B00072616E67650056616C756573206F757445
:1006C000206F662072616E67650056616C75657398
:1006D000206F7574206F662072616E6765005661C9
:1006E0006C756573206F7574206F662072616E671C
:1006F0006500535441544953544943532052455380
:1007000045540048617264636F6465642043616CA2
:10071000696220616E6420504944204465666175B9
:100720006C742053657474696E6773204C6F6164D8
:1007300065640048617264636F6465642044656643
:1007400061756C742053657474696E6773204C6FA7
:10075000616465640053746F7265642073657474BA
:10076000696E677320726574726965766564002CC2
:100770002073617665645F466C61675F66616E6C6D
:10078000617965725F6D6972726F723A20002C2018
:1007900073617665645F66656564726174653A204D
:1007A000002C2073617665645F66616E6C617965AB
:1007B000723A20002C2073617665645F74656D70F9
:1007C0006265643A20002C2073617665645F74650D
:1007D0006D70303A20002C2073617665645F74651B
:1007E0006D70313A20002C2073617665645F666914
:1007F0006C65706F736974696F6E3A20002C20739A
:10080000617665645F655F706F736974696F6E3A76
:1008100020002C2073617665645F746F6F6C5F617C
:1008200063746976653A20002C2073617665645F95
:100830007A5F706F736974696F6E3A20002C207351
:10084000617665645F795F706F736974696F6E3A22
:1008500020002C2073617665645F785F706F736928
:1008600074696F6E3A200053415645205052494EEC
:1008700054204C4F473A00204D696E7574657320C3
:100880003A0020204C617374207072696E74207479
:10089000696D652D3E20486F757273203A004C617A
:1008A0007374207072696E74206475726174696FFC
:1008B0006E002C205468697264204944206E756D66
:1008C00062657220002C205365636F6E642049447A
:1008D000206E756D6265723A200020204669727341
:1008E00074204944206E756D6265723A2000554946
:1008F00020496E666F726D6174696F6E2053657208
:1009000069616C204E756D6265723A00206D2C2015
:100910004531207072696E742064697374616E630E
:10092000653A2000206B6D2C204530207072696E76
:10093000742064697374616E63653A2000206B6D86
:100940002C2059207072696E742064697374616E12
:1009500063653A2000206B6D2C205831207072693D
:100960006E742064697374616E63653A200020437D
:100970002C0A205830207072696E74206469737478
:10098000616E63653A200020432C206D61782074ED
:10099000656D7020423A200020432C206D61782044
:1009A00074656D7020523A20002C206D617820749F
:1009B000656D70204C3A2000682C207072696E744E
:1009C000732066696E69736865643A20002C207034
:1009D00072696E74696E672074696D653A200020D3
:1009E000207072696E74733A200053544154533A24
:1009F0000020432C20525F5052494E543A20002090
:100A0000432C20525F4245443A200020432C205280
:100A10005F52454D4F56453A20002020525F494EC7
:100A2000534552543A200054656D70202843293AAA
:100A30000020432C204C5F5052494E543A20002055
:100A4000432C204C5F4245443A200020432C204C4C
:100A50005F52454D4F56453A200020204C5F494E8D
:100A6000534552543A200054656D70202843293A6A
:100A70000020562856657273696F6E292000205237
:100A800028426564207269676874207363726577B1
:100A900029200020204D353331204C284265642028
:100AA0006C65667420736372657729200042656403
:100AB000204F66667365747320286D6D293A002097
:100AC00050285A2070726F62652900205A20002039
:100AD00059200020204D353330205820004F6666C5
:100AE0007365747320286D6D293A002044002049F5
:100AF00000202D204D33303120524947485420509A
:100B00000020440020490020204D333031204C4546
:100B100046542050005049442073657474696E67D0
:100B2000733A00205A0020590020204D32303620E0
:100B30005800486F6D65206F666673657420286D78
:100B40006D293A00204500205A002058002042001C
:100B500020540020204D323035205300416476610E
:100B60006E636564207661726961626C65733A20B8
:100B7000533D4D696E206665656472617465202819
:100B80006D6D2F73292C20543D4D696E2074726158
:100B900076656C20666565647261746520286D6D8C
:100BA0002F73292C20423D6D696E696D756D207320
:100BB00065676D656E742074696D6520286D732995
:100BC0002C20583D6D6178696D756D205859206AEB
:100BD00065726B20286D6D2F73292C20205A3D6D76
:100BE0006178696D756D205A206A65726B20286D79
:100BF0006D2F73292C2020453D6D6178696D756DD1
:100C00002045206A65726B20286D6D2F73290020A6
:100C1000540020204D323034205300416363656C12
:100C200065726174696F6E3A20533D616363656CF0
:100C300065726174696F6E2C20543D7265747261C7
:100C4000637420616363656C65726174696F6E00C3
:100C5000204500205A0020590020204D32303120FC
:100C600058004D6178696D756D20416363656C65F1
:100C7000726174696F6E20286D6D2F7332293A008E
:100C8000204500205A0020590020204D32303320CA
:100C900058004D6178696D756D2066656564726197
:100CA00074657320286D6D2F73293A00204500204C
:100CB0005A0020590020204D3932205800537465C5
:100CC00070732070657220756E69743A0053657494
:100CD00074696E67732053746F726564006563682E
:100CE0006F3A00204500205A00205900483D580026
:100CF00045787472756465722072656C65617365A0
:100D000064206163746976653A20005A205349472C
:100D10004D4120486F6D6564004578747275646557
:100D200072206163746976653A20005072696E744E
:100D300065722068616C7465642E206B696C6C2828
:100D4000292063616C6C65642100436F6F6C696E70
:100D50006720446F776E2048656174657200447542
:100D6000616C204D6972726F72204D6F6465204F07
:100D70004E004475616C204D6F6465204F4E0044F9
:100D800075616C204D6F6465204F4646006F6B00A7
:100D9000526573656E643A2000504F534954494F71
:100DA0004E20484F4D453A200054696D6520696ECC
:100DB0006163746976650050757267652064697354
:100DC00074616E636500486F74656E64206F66665B
:100DD000736574733A005A204F6666736574203ADF
:100DE00020007A5F6D61783A20007A5F6D696E3A13
:100DF00020005A204F6666736574005A204F66665D
:100E0000736574206F6B004E6F74207072696E741E
:100E1000207265636F766572792075700050726913
:100E20006E74207265636F76657279207570004804
:100E30006F74656E64206F6666736574733A007ACA
:100E40005F6D696E3A2000795F6D61783A200078B5
:100E50005F6D61783A2000785F6D696E3A200020FE
:100E60005A3A0020593A0020436F756E7420583A60
:100E7000200020453A00205A3A0020593A00583ABA
:100E8000004649524D574152455F4E414D453A4DFE
:100E900061726C696E2056313B20537072696E74BA
:100EA00065722F6772626C206D6173687570206661
:100EB0006F722067656E36204649524D5741524544
:100EC0005F55524C3A68747470733A2F2F67697487
:100ED0006875622E636F6D2F4572696B5A616C6D18
:100EE0002F4D61726C696E2F2050524F544F434FFB
:100EF0004C5F56455253494F4E3A312E30204D41AA
:100F00004348494E455F545950453A4D656E6465B6
:100F10006C2045585452554445525F434F554E54EA
:100F20003A3220555549443A303030303030303044
:100F30002D303030302D303030302D303030302DBD
:100F40003030303030303030303030300A004265B0
:100F500064204865617465640020423A0020453A87
:100F600000543A0045787472756465722048656172
:100F70007465640020573A0020453A00543A002036
:100F800042403A0020403A00202F003A002054000E
:100F9000202F0020423A00202F006F6B20543A008F
:100FA0000A0A005374616E64617264204465766954
:100FB0006174696F6E3A20000A004D65616E3A20D7
:100FC000000A002020207A3A200000793A20007898
:100FD0003A20003F537065636966696564206E75E9
:100FE0006D626572206F66206C65677320696E2084
:100FF0006D6F76656D656E74206E6F7420706C61B8
:10100000757361626C652E0A003F53706563696693
:10101000696564205920706F736974696F6E206F01
:101020007574206F662072616E67652E0A003F53EB
:101030007065636966696564205820706F736974B0
:10104000696F6E206F7574206F662072616E6765C0
:101050002E0A003F53706563696669656420736199
:101060006D706C652073697A65206E6F7420706C8A
:1010700061757361626C652E0A0046756C6C207335
:101080007570706F72742061743A20687474703A6D
:101090002F2F33647072696E74626F6172642E6395
:1010A0006F6D2F666F72756D2E7068700A004D340B
:1010B00038205A2D50726F626520526570656174D8
:1010C0006162696C69747920746573742E202020C4
:1010D00056657273696F6E20322E30300A003F56AB
:1010E0006572626F7365204C6576656C206E6F74F7
:1010F00020706C61757361626C652E0A0025692031
:101100006D696E2C20256920736563004732382095
:10111000583020593000627566666572206F7574AC
:101120003A2000427566666572313A20004361726A
:1011300064204E616D653A2000456E642066696CDE
:1011400065206C69737400426567696E2066696C1E
:1011500065206C697374000A00205A3A20002059F7
:101160003A200020583A2000426564004736392072
:10117000414354495641544544000A00207A3A20DC
:101180000020793A200020783A2000426564000A65
:101190000020616E7469686F726172690A3A20009A
:1011A00020686F726172690A20002F3800766F6CB8
:1011B000746573200020566F6C74657320636172D0
:1011C000676F6C20333A200020616E7469686F721B
:1011D0006172690A3A200020686F726172690A20A0
:1011E000002F3800766F6C746573200020566F6C8A
:1011F00074657320636172676F6C20323A20000A55
:101200000020647A333A200020647A323A20005475
:101210003100543000543000543000005675697469
:10122000656E73333A2020004170726F78333A2034
:101230002000566F6C746573333A20200000567599
:101240006974656E73323A2020004170726F783293
:101250003A202000566F6C746573323A2020005695
:10126000616C6F7220645A333A20200056616C6FB3
:101270007220645A323A2020004E6577206F6666ED
:101280007365742076657273696F6E3A20007A33E5
:101290005F313A20007A325F313A20005A7363722C
:1012A0006F6C6C5F313A20007A335F303A20007AFD
:1012B000325F303A20005A7363726F6C6C5F303A61
:1012C0002000706C616E654E6F726D616C5F312EC7
:1012D0007A3A2000706C616E654E6F726D616C5F62
:1012E000312E793A2000706C616E654E6F726D61BF
:1012F0006C5F312E783A2000706C616E654E6F72B3
:101300006D616C5F302E7A3A2000706C616E654EB4
:101310006F726D616C5F302E793A2000706C616E77
:10132000654E6F726D616C5F302E783A20005A7690
:10133000616C756520616674657220686F6D653AD1
:1013400000486F6D6520582F59206265666F726581
:10135000205A005374617274696E67205A20436189
:101360006C6962726174696F6E2057697A61726428
:10137000004D3834005374617274696E67205920CF
:1013800043616C6962726174696F6E2057697A613A
:101390007264004D3834005374617274696E672052
:1013A000582043616C6962726174696F6E2057697D
:1013B0007A61726400457874727564657220726532
:1013C0006C6561736564206163746976653A2000B9
:1013D0005A205349474D4120486F6D656400457858
:1013E000747275646572206163746976653A200071
:1013F0002200556E6B6E6F776E20636F6D6D616E40
:10140000643A202200504F534954494F4E20484FD0
:101410004D453A200020004D6F766520746F3A20CC
:1014200000473932204530205A3020522564004E82
:101430006577206C61796572206465746563746595
:1014400064005A20686F7070696E67206465746507
:101450006374656400256920686F7572732025695F
:10146000206D696E7574657300446F6E65207072CF
:10147000696E74696E672066696C65004D33330070
:101480007061757365206465746563746564200AB2
:1014900000473639005072696E7465722073746F3C
:1014A000707065642064756520746F206572726F5A
:1014B00072732E2046697820746865206572726F99
:1014C0007220616E6420757365204D39393920743E
:1014D0006F20726573746172742E202854656D706C
:1014E00065726174757265206973207265736574C5
:1014F0002E205365742069742061667465722072B1
:10150000657374617274696E6729006F6B004E6F4A
:10151000204C696E65204E756D6265722077697426
:101520006820636865636B73756D2C204C61737400
:10153000204C696E653A20004E6F20436865636BEE
:1015400073756D2077697468206C696E65206E759F
:101550006D6265722C204C617374204C696E653A23
:101560002000636865636B73756D206D69736D61D1
:101570007463682C204C617374204C696E653A204A
:10158000004C696E65204E756D626572206973202E
:101590006E6F74204C617374204C696E65204E75BB
:1015A0006D6265722B312C204C617374204C696E16
:1015B000653A20004D3131300053757266696E67AF
:1015C0002030200A0043616C6962726174696F6E39
:1015D000205375636365737366756C0A005430003D
:1015E0004D383420582059205A2045002534643A7B
:1015F000252E326468202F202564670000466F7214
:101600006D203221002564206974656D7300526578
:1016100061647920746F204C6F61642F556E6C6F1C
:101620006164200A00256425250025336420256394
:101630004300253364202563430025336425634339
:10164000202F20253364256343002533642563431D
:10165000202F20253364256343002533642563430D
:10166000202F202533642563430025203364202563
:10167000250025642068202564206D002520336422
:10168000202525002532642025634300253364206E
:10169000256343002533642025634300526561645C
:1016A0007920746F204C6F61642F556E6C6F61648C
:1016B000200A002564252500253364202563430086
:1016C00025336420256343002053544F502050524B
:1016D000494E54200A0047323820583020593000F3
:1016E0004D333500526573756D65206465746563AF
:1016F000746564200A0047373000A1524553554DA8
:101700004521200A00A1504155534521200A0025BA
:10171000336420256343002533642025634300257B
:10172000336420256343002533642025634300256B
:10173000336420256343002533642025634300255B
:10174000336420256343002533642025634300254B
:10175000336420256343005052494E54205345546E
:1017600054494E4753200A00446F6E6520736176DA
:10177000696E672066696C652E006F6B004D3239AB
:101780000067636F646520666F756E640042434E48
:101790003344205369676D61007374617274003162
:1017A0002E322E364D4F443031002200656E717559
:1017B00065696E672022002200656E717565696E2D
:1017C0006720220043616C63756C75733A202000BA
:1017D00043616C63756C75733A20200043616C63E0
:1017E000756C75733A20200025336420256343000F
:1017F0002533642025634300507572676520466970
:101800006C616D656E740A0053757266696E67204F
:10181000310A0053757266696E6720300A004733DB
:101820003400494E464F3A204245442043414C49FA
:1018300042202D200053757266696E6720300A00C1
:10184000473238205830205930005430005431008D
:1018500054300054300053757266696E6720300A48
:1018600000473433004734330047343100473430C5
:1018700000473433004734330047343100473430B5
:10188000004D3834004D3834004D3834005A322081
:101890004F66667365743A20004F4B207365636F23
:1018A0006E6420457874727564657221005A2070E8
:1018B0006F736974696F6E3A20005A20706F736994
:1018C00074696F6E3A20004D3834005A31205072DE
:1018D0006F6265206F66667365743A20004F4B2017
:1018E000666972737420457874727564657221201C
:1018F0000A005A20706F736974696F6E3A20005A3B
:1019000020706F736974696F6E3A200043616C6375
:10191000756C75733A20200043616C63756C757348
:101920003A20200043616C63756C75733A20200087
:1019300043616C63756C75733A2020005430005419
:10194000300054300043616C6962726174696F6E7B
:10195000205375636365737366756C0A00543000B9
:101960004A756D70206F766572207363726577318A
:1019700020616E6420736372657732200A004A75B5
:101980006D70206F76657220736372657731200AFF
:1019900000473334004733340047333400543000B9
:1019A00047333400494E464F3A2042454420434194
:1019B0004C4942202D2000363020646567726565F1
:1019C00073200A004C6F6164696E670A0053757278
:1019D00066696E6720300A0053757266696E67200B
:1019E000300A0053757266696E6720300A0025332D
:1019F0006420256343002533642025634300253399
:101A000064202563430050757267652046696C61E8
:101A10006D656E740A002533642025634300253309
:101A20006420256343002533642025634300253368
:101A30006420256343002533642025634300253358
:101A40006420256343002533642025634300253348
:101A500064202563430053757266696E6720300AFF
:101A60000053757266696E6720300A005430004674
:101A70006F756E640053757266696E6720300A0078
:101A80004D33340053757266696E6720300A004D1D
:101A90003234004D32332025730053757266696EFF
:101AA0006720300A0053757266696E6720300A003D
:101AB00053757266696E6720300A0053554343457B
:101AC00053530A00253364202563430025336420E3
:101AD00025634300253364202563430025336420B8
:101AE00025634300253364202563430025336420A8
:101AF0002563430025336420256343002533642098
:101B00002563430025336420256343004C6F6164E3
:101B1000696E673A0A002533642025634300253344
:101B200064202563430025336420256343005075FA
:101B30007267652046696C616D656E74200A00FFEE
:101B400001FF0000A0400000A04000000040CDCCFC
:101B5000984300809343000052430000000000803F
:101B6000934300000000CDCC9843008093430000D5
:101B70005243000000000000000000000000656308
:101B8000686F3A004572726F723A003B2020205015
:101B90006C6173746963207765696768743A20259E
:101BA000642E256467003B46696C616D656E742028
:101BB000757365643A2025642E25646D2025642E96
:101BC000256467003B46696C616D656E74207573B2
:101BD00065643A20256C752E256C756D003B2020C0
:101BE000204275696C642074696D653A2025642013
:101BF0002573202564202573003B5072696E742084
:101C000074696D653A20256420257320256420259C
:101C100073202564202573003B54494D453A202507
:101C20006C64003B20472D436F64652067656E65DB
:101C300072617465642062792053696D706C6966A5
:101C40007933442852292056657273696F6E2025B6
:101C500064007C3C3E5E2B3D3F2F5B5D3B2C2A228B
:101C60005C004D383420582059205A2045004D3111
:101C70003037005430004D3130370043616E6E6FA5
:101C80007420656E746572207375626469723A209F
:101C9000005341564544205052494E54004D323471
:101CA000004D3233202573006175746F25692E67EE
:101CB000006572726F722077726974696E67207442
:101CC0006F2066696C65004E6F74205344207072FB
:101CD000696E74696E67002F005344207072696EDC
:101CE00074696E67206279746520002E0044656C0B
:101CF0006574696F6E206661696C65642C20466945
:101D00006C653A200046696C652064656C65746595
:101D1000643A002E006F70656E206661696C6564C0
:101D20002C2046696C653A200057726974696E67A9
:101D300020746F2066696C653A20002E006F706514
:101D40006E206661696C65642C2046696C653A207A
:101D5000002E006F70656E206661696C65642C20D2
:101D600046696C653A200046696C652073656C6550
:101D700063746564002053697A653A200046696C93
:101D800065206F70656E65643A20002E006F706587
:101D90006E206661696C65642C2046696C653A202A
:101DA000004E6F772066726573682066696C653ACD
:101DB00020004E6F7720646F696E672066696C65DE
:101DC0003A20002220706F73002220706172656ECD
:101DD000743A2200535542524F5554494E452043C0
:101DE000414C4C207461726765743A2200747279B8
:101DF000696E6720746F2063616C6C207375622D4F
:101E000067636F64652066696C65732077697468C1
:101E100020746F6F206D616E79206C6576656C73D0
:101E20002E204D4158206C6576656C2069733A0010
:101E30007A70726F62653A20005344206361726465
:101E4000206F6B006F70656E526F6F7420666169F2
:101E50006C656400766F6C756D652E696E697420B3
:101E60006661696C656400534420696E697420661C
:101E700061696C006563686F3A004572726F723A0F
:101E80000020636F6C6420657874727573696F6E7F
:101E90002070726576656E746564006563686F3A7C
:101EA00000205A3A0020593A0020583A00656E64E2
:101EB00073746F7073206869743A200024F4D4300E
:101EC00050C38E20C2A24017828B7011127A910DDE
:101ED000816CD90AA861E108C758660761514306B9
:101EE0001E4B5D05C145A7041A411104093D980325
:101EF000713931034036DB0265339102D43054022C
:101F0000802E1D02632CEE01752AC501B028A001A8
:101F1000102781018F2564012B244B01E02234011D
:101F2000AC211F018D200D01801FFC00841EED00DF
:101F3000971DDF00B81CD200E61BC600201BBC00AA
:101F4000641AB200B219A8000A19A0006A18990010
:101F5000D117910040178B00B516840031167E0012
:101F6000B31579003A157300C7146F0058146A004E
:101F7000EE1366008813630025135E00C7125B0032
:101F80006C12570015125400C111510070114F000E
:101F900021114B00D61049008D1047004610440017
:101FA00002104200C00F4000800F3E00420F3C0074
:101FB000060F3B00CB0E3800930E37005C0E350049
:101FC000270E3400F30D3200C10D3100900D3000AA
:101FD000600D2E00320D2D00050D2C00D90C2B00AC
:101FE000AE0C2900850C29005C0C2700350C27005D
:101FF0000E0C2600E80B2400C40B2400A00B2300C9
:102000007D0B23005A0B2100390B2100180B2000F7
:10201000F80A1F00D90A1E00BB0A1E009D0A1D00F7
:10202000800A1D00630A1C00470A1B002C0A1B00C3
:10203000110A1A00F7091A00DD091900C40919006C
:10204000AB091900920917007B09180063091700F2
:102050004C09160036091600200916000A09150059
:10206000F5081500E0081400CC081400B8081400A6
:10207000A4081400900813007D0812006B081300D8
:1020800058081200460812003408110023081100F5
:102090001208110001081100F0071000E0071000FD
:1020A000D0071000C0071000B0070F00A1071000F4
:1020B00091070E0083070F0074070F0065070E00DD
:1020C00057070E0049070E003B070D002E070E00B4
:1020D00020070D0013070D0006070D00F9060C0080
:1020E000ED060D00E0060C00D4060C00C8060C003E
:1020F000BC060C00B0060C00A4060B0099060C00F0
:102100008D060B0082060B0077060B006C060B0099
:1021100061060A0057060B004C060A0042060A0038
:1021200038060A002E060A0024060A001A060A00CB
:102130001006090007060A00FD050900F40509005C
:10214000EB050900E2050900D9050900D0050900E1
:10215000C7050900BE050900B5050800AD05080062
:10216000A50509009C050800940508008C050800D9
:10217000840508007C050800740508006C0507004C
:10218000650508005D050700560508004E050700B7
:10219000470507004005080038050700310507001E
:1021A0002A050700230507001C0506001605070081
:1021B0000F0507000805060002050700FB040600DE
:1021C000F5040700EE040600E8040600E204070038
:1021D000DB040600D5040600CF040600C90406008F
:1021E000C3040600BD040600B7040600B1040500E0
:1021F000AC040600A6040600A00405009B0406002B
:1022000095040500900406008A0405008504050075
:10221000800406007A0405007504050070040500BA
:102220006B04050066040500610405005C040500FC
:1022300057040500520405004D040500480405003C
:10224000430405003E0404003A040500350405007B
:10225000300404002C0405002704040023040500B6
:102260001E0404001A0404001604050011040400EE
:102270000D04040009040500040404000004040023
:10228000FC030400F8030400F4030400F00304005A
:10229000EC030400E8030400E4030400E00304008A
:1022A000DC030400D8030400D4030400D0030400BA
:1022B000CC030400C8030300C503030024F404D9BD
:1022C000201BC40C5C0E9804C4095F0265077101F1
:1022D000F405F900FB04B30048048700C10369005A
:1022E0005803550003034500BE023A008402310042
:1022F00053022A002902250004022000E4011C00E8
:10230000C8011900AF0117009801140084011300DF
:10231000710110006101100051010E0043010D0018
:1023200036010B002B010B0020010B0015010900E9
:102330000C01090003010800FB000800F30008007D
:10234000EB000700E4000600DE000600D8000600EF
:10235000D2000600CC000500C7000500C200050041
:10236000BD000400B9000400B5000400B100040081
:10237000AD000400A9000400A5000300A2000300B2
:102380009F0004009B0003009800030095000200DA
:1023900093000300900003008D0002008B000300F7
:1023A0008800020086000200840003008100020011
:1023B0007F0002007D0002007B0002007900020025
:1023C0007700010076000200740002007200010034
:1023D000710002006F0002006D0001006C0002003D
:1023E0006A00010069000200670001006600010048
:1023F000650001006400020062000100610001004C
:10240000600001005F0002005D0001005C0001004F
:102410005B0001005A000100590001005800010052
:102420005700010056000100550001005400010052
:102430005300000053000100520001005100010050
:10244000500001004F0001004E0000004E0001004E
:102450004D0001004C0001004B0000004B0001004A
:102460004A00010049000100480000004800010046
:102470004700010046000000460001004500000042
:10248000450001004400010043000000430001003A
:102490004200000042000100410000004100010034
:1024A000400001003F0000003F0001003E0000002E
:1024B0003E0001003D0000003D0001003C00000026
:1024C0003C0000003C0001003B0000003B0001001C
:1024D0003A0000003A000100390000003900010014
:1024E000380000003800000038000100370000000C
:1024F0003700010036000000360000003600010001
:1025000035000000350000003500010034000000F7
:1025100034000000340001003300000033000000EC
:1025200033000100320000003200000032000100E0
:1025300031000000310000003100010030000000D7
:1025400030000000300001002F0000002F000000CC
:102550002F0000002F0001002E0000002E000000C0
:102560002E0001002D0000002D0000002D000000B5
:102570002D0001002C0000002C0000002C000000A9
:102580002C0001002B0000002B0000002B0000009D
:102590002B0001002A0000002A0000002A00000091
:1025A0002A00010029000000290000002900000085
:1025B0002900000029000100280000002800000078
:1025C000280000002800000028000100270000006B
:1025D000270000002700000027000000270001005E
:1025E0002600000026000000260000002600000053
:1025F0002600010025000000250000002500000045
:102600002500000025000000250001002400000036
:102610002400000024000000240000002400010029
:10262000230000002300000023000000230000001E
:10263000230000002300000023000100220000000E
:102640002200000022000000220000002200000002
:1026500022000100210000002100000021000000F4
:1026600021000000210000002100000021000100E5
:1026700020000000200000002000000020000000DA
:1026800020000000200000002000000020000100C9
:102690001F0000001F0000001F0000001F000000BE
:1026A0001F0000001F0000001F0001001E000000AE
:1026B0001E0000001E0000001E0000006563686F21
:1026C0003A00487973746572657369732074656D37
:1026D000706572617475726500546865726D616CC5
:1026E0002072756E617761792070726F74656374A2
:1026F000696F6E206279204865617465725F494434
:102700003A004572726F72283833293A2042656464
:1027100020746865726D6973746F72206E6F7420B7
:102720006465746563746564004572726F722838FD
:1027300032293A20526967687420746865726D693D
:1027400073746F72206E6F74206465746563746552
:1027500064004572726F72283831293A204C6566E0
:102760007420746865726D6973746F72206E6F7413
:1027700020206465746563746564002053544F5071
:10278000205052494E54200A004572726F72283808
:1027900033293A2042656420746865726D697374E8
:1027A0006F72206E6F742064657465637465640075
:1027B0002053544F50205052494E54200A00457225
:1027C000726F72283832293A20526967687420740F
:1027D0006865726D6973746F72206E6F74206465C2
:1027E000746563746564002053544F5020505249FF
:1027F0004E54200A004572726F72283831293A20EF
:102800004C65667420746865726D6973746F7220AC
:102810006E6F74202064657465637465640050494C
:1028200044204175746F74756E652066696E6973B6
:102830006865642100504944204175746F74756E59
:1028400065206661696C6564212074696D656F75CA
:10285000740020403A006F6B20543A006F6B2042A6
:102860003A00504944204175746F74756E65206656
:1028700061696C6564212054656D70657261747561
:10288000726520746F6F206869676800204B643A36
:102890002000204B693A2000204B703A2000204352
:1028A0006C61737369632050494420002054753A69
:1028B0002000204B753A2000206D61783A200020DE
:1028C0006D696E3A200020643A20002062696173CD
:1028D0003A2000504944204175746F74756E65202C
:1028E00066696E6973686564212050757420746828
:1028F00065206C617374204B702C204B6920616ED5
:1029000064204B6420636F6E7374616E7473206611
:10291000726F6D2061626F766520696E746F2043FF
:102920006F6E66696775726174696F6E2E680050AC
:102930004944204175746F74756E65206661696CD9
:102940006564212074696D656F75740020403A00DC
:102950006F6B20543A006F6B20423A00504944207C
:102960004175746F74756E65206661696C6564216C
:102970002054656D706572617475726520746F6F37
:10298000206869676800204B643A2000204B693A50
:102990002000204B703A200020436C617373696300
:1029A0002050494420002054753A2000204B753AAD
:1029B0002000206D61783A2000206D696E3A200079
:1029C00020643A200020626961733A2000457272E7
:1029D0006F723A0070012C0190012701B0012201B1
:1029E000C0011D01F00118011002130130020E0197
:1029F0006002090190020401C002FF000003FA0016
:102A00004003F5008003F000D003EB002004E60053
:102A10007004E100E004DC004005D700C005D200EE
:102A20004006CD00D006C8008007C3003008BE00B5
:102A3000F008B900C009B400B00AAF00B00BAA009A
:102A4000D00CA500000EA000500F9B00C0109600F7
:102A50005012910000148C00C0158700B01782003E
:102A6000B0197D00D01B7800001E730040206E005E
:102A700090226900F024640040275F0090295A00EA
:102A8000E02B5500102E500020304B001032460035
:102A9000E033410090353C00103737007038320089
:102AA000A0392D00B03A2800A03B2300603C1E0056
:102AB000103D1900903D1400103E0F00703E0A00BA
:102AC000C03E0500003F000000000A0B02090C0D8B
:102AD0000E080703040100000000000000000000D1
:102AE00000000000000000000000000000000000E6
:102AF00000000000121110000000000000000000A3
:102B000000000000000000000000000000000102C2
:102B100010202008081020401020408002010201EF
:102B200008040201010204081020408080402010A7
:102B30000804020180040201804020100804020100
:102B40000804020101020408102040800102040868
:102B50001020408005050505070508080808020241
:102B600002020A0A08080404040401010101010127
:102B700001010303030303030303040707070C0C0A
:102B80000C0C0C0C0C0C02020202060606060606D1
:102B900006060B0B0B0B0B0B0B0B0000200023008E
:102BA000260029002C002F00320000010000030144
:102BB0000601090100002200250028002B002E003C
:102BC0003100340002010000050108010B01000082
:102BD0002100240027002A002D00300033000101CD
:102BE0000000040107010A014E414E494E49545963
:102BF000494E46CDCCCC3D0AD7233C17B7D13877C8
:102C0000CC2B329595E6241FB14F0A0000204100DD
:102C100000C84200401C4620BCBE4CCA1B0E5AAE27
:102C2000C59D746364696E6F70737578585B00003E
:102C30005E2DCB02CF01D902550211241FBECFEF6A
:102C4000D1E2DEBFCDBF00E00CBF17E0A0E0B2E0F4
:102C5000E6E3FFE903E00BBF02C007900D92AC353D
:102C6000B107D9F729E1ACE5B7E001C01D92AA3B55
:102C7000B207E1F71CE2C8E3DCE200E006C02297FD
:102C80000109FE010BBF0F94C2C3C033D10780E01E
:102C90000807A9F70F9428BD0D9489CF0C94000064
:102CA000DC01ED91FC910190F081E02D1994EF92FF
:102CB000FF920F931F93CF93DF931F92CDB7DEB791
:102CC0008C017B01460FF70161917F01F801808142
:102CD000918149830F9470CEF80180819181019692
:102CE0009183808349814E11EECF0F90DF91CF9178
:102CF0001F910F91FF90EF900895EF92FF920F9325
:102D00001F93CF93DF931F92CDB7DEB78C017B016A
:102D1000460FF8018081918149830F9468CEF701B5
:102D200081937F01F8018081918101969183808355
:102D300049814E11EECF0F90DF91CF911F910F91EE
:102D4000FF90EF9008950F931F93CF93DF93CDB72C
:102D5000DEB768970FB6F894DEBF0FBECDBF80E335
:102D600090E3A0E3B0E08D839E83AF83B88704E651
:102D700010E0188F0F8B44E0BE016B5F7F4FCE01D8
:102D8000479695DF40E16AE077E1CE0147968FDF15
:102D900040E16AE177E1CE01479689DF40E16AEFE1
:102DA00076E1CE01479683DF44E062EF76E1CE0123
:102DB00047967DDF44E06AEE76E1CE01479677DF05
:102DC00044E066EF76E1CE01479671DF44E06AEDBC
:102DD00076E1CE0147966BDF44E06AE277E1CE010F
:102DE000479665DF44E066EE76E1CE0147965FDF09
:102DF00044E062EE76E1CE01479659DF44E06EEDA5
:102E000076E1CE01479653DF4CE06EEA7AE0CE01E0
:102E100047964DDF87ED90E09E8B8D8B8DE290E0A5
:102E20009C8B8B8B1A8A198A80EF90E0988B8F8706
:102E300086E490E09E878D871C861B8642E0BE015B
:102E40006B5E7F4FCE01479632DF42E0BE016D5E82
:102E50007F4FCE0147962BDF42E0BE016F5E7F4F72
:102E6000CE01479624DF42E0BE01615F7F4FCE0175
:102E700047961DDF42E0BE01635F7F4FCE0147965C
:102E800016DF42E0BE01655F7F4FCE0147960FDF40
:102E900044E06BE97AE0CE01479609DF44E06BE25B
:102EA00072E0CE01479603DF44E063E372E0CE01B7
:102EB0004796FDDE44E06BE372E0CE014796F7DE15
:102EC00042E061E17BE0CE014796F1DE42E065E160
:102ED0007BE0CE014796EBDE42E063E17BE0CE0192
:102EE0004796E5DE42E06FE07BE0CE014796DFDE0D
:102EF00042E061E07BE0CE014796D9DE42E065E04A
:102F00007BE0CE014796D3DE42E063E07BE0CE017A
:102F10004796CDDE42E06FEF7AE0CE014796C7DEFE
:102F200042E069E07BE0CE014796C1DE42E06DE021
:102F30007BE0CE014796BBDE42E06BE07BE0CE015A
:102F40004796B5DE42E067E07BE0CE014796AFDE14
:102F500042E069EF7AE0CE014796A9DE42E06DEFEC
:102F60007AE0CE014796A3DE42E06BEF7AE0CE0135
:102F700047969DDE42E067EF7AE0CE01479697DE06
:102F800044E06DE173E0CE01479691DE44E065E1F7
:102F900073E0CE0147968BDE44E06DE073E0CE0136
:102FA000479685DE44E061E273E0CE0147967FDE1E
:102FB00044E069E173E0CE01479679DE44E061E1E7
:102FC00073E0CE01479673DE42E060E67AE0CE0120
:102FD00047966DDE42E064E57AE0CE01479667DE13
:102FE00042E062E57AE0CE01479661DE42E060E5CC
:102FF0007AE0CE0147965BDE42E06EE57AE0CE01F4
:10300000479655DE42E06EE47AE0CE0147964FDE09
:1030100080E290E09A87898742E0BE01675F7F4F38
:10302000CE01479644DE42E06CEA7BE0CE01479653
:103030003EDE44E068EA7BE0CE01479638DE42E0BF
:1030400066EA7BE0CE01479632DE42E068E57AE050
:10305000CE0147962CDE42E066E57AE0CE01479647
:1030600026DE48E066E47AE0CE01479620DE48E0BE
:103070006EE37AE0CE0147961ADE48E066E37AE036
:10308000CE01479614DE48E06EE27AE0CE01479624
:103090000EDE48E066E27AE0CE01479608DE42E0C6
:1030A00060E772E0CE01479602DE42E068E772E038
:1030B000CE014796FCDD44E061E67BE0CE01479619
:1030C000F6DD44E06DE57BE0CE014796F0DD44E0BF
:1030D00069E57BE0CE014796EADD42E067E57BE00B
:1030E000CE014796E4DD44E063E57BE0CE01479600
:1030F000DEDD44E06FE47BE0CE014796D8DD42E0C0
:103100006DE47BE0CE014796D2DD42E06BE47BE0EC
:10311000CE014796CCDD42E069E47BE0CE014796E4
:10312000C6DD42E067E47BE0CE014796C0DD42E0C9
:1031300065E47BE0CE014796BADD41E06EE27BE0DC
:10314000CE014796B4DD42E061E37BE0CE014796D5
:10315000AEDD42E063E37BE0CE014796A8DD42E0CE
:1031600065E37BE0CE014796A2DD42E067E37BE0CA
:10317000CE0147969CDD42E069E37BE0CE014796B5
:1031800096DD42E06BE37BE0CE01479690DD42E0C6
:103190006DE37BE0CE0147968ADD42E06FE37BE0A2
:1031A000CE01479684DD42E061E47BE0CE014796A4
:1031B0007EDD42E063E47BE0CE01479678DD44E0CB
:1031C0006EEE76E1CE01479672DD42E06EE77BE07F
:1031D000CE0147966CDD44E067E97AE0CE01479680
:1031E00066DD44E063E97AE0CE01479660DD44E0C5
:1031F00062E67AE0CE0147965ADD44E066E67AE080
:10320000CE01479654DD44E06AE67AE0CE01479667
:103210004EDD44E06EE67AE0CE01479648DD42E0BE
:1032200066E772E0CE01479642DD44E062E772E075
:10323000CE0147963CDD42E061E27AE0CE0147965E
:1032400036DD42E061E97AE0CE01479630DD42E0CA
:1032500062E472E0CE0147962ADD86E591E3A2E3BF
:10326000B0E089839A83AB83BC83188F0F8B44E0D3
:10327000BE016F5F7F4FCE01479619DDEDEDFCE09B
:1032800064918F01662359F0772767FD709584E775
:1032900098E106DD0F5F1F4FF8016491F3CFEDEC6D
:1032A000FCE064918F01662359F0772767FD7095E4
:1032B00084E798E1F5DC0F5F1F4FF8016491F3CFCD
:1032C0006AE070E084E798E1EBDC68960FB6F8946A
:1032D000DEBF0FBECDBFDF91CF911F910F9108953B
:1032E0000F931F93CF93DF93CDEDDCE0FE0164914C
:1032F0008E01662359F0772767FD709584E798E182
:10330000CFDC0F5F1F4FF8016491F3CFEDEBFCE0D2
:1033100064918F01662359F0772767FD709584E7E4
:1033200098E1BEDC0F5F1F4FF8016491F3CF6AE0B4
:1033300070E084E798E1B4DCFE0164910DED1CE0DF
:10334000662359F0772767FD709584E798E1A8DC3C
:103350000F5F1F4FF8016491F3CF40910A1750910E
:103360000B1760910C1770910D1785EB9CE00E9474
:10337000F23740910E1750910F176091101770910E
:10338000111782EB9CE00E94F23740911217509186
:10339000131760911417709115178FEA9CE00E9423
:1033A000F2374091161750911717609118177091C6
:1033B00019178CEA9CE00E94F2376EE477E084E70C
:1033C00098E10F94BFBA6AE070E084E798E168DCA6
:1033D000FE0164910DED1CE0662359F0772767FD2F
:1033E000709584E798E15CDC0F5F1F4FF8016491F2
:1033F000F3CFE2E9FCE064918F01662359F077276F
:1034000067FD709584E798E14BDC0F5F1F4FF80173
:103410006491F3CF6AE070E084E798E141DCFE015B
:1034200064910DED1CE0662359F0772767FD7095D8
:1034300084E798E135DC0F5F1F4FF8016491F3CF0B
:1034400040911A1750911B1760911C1770911D170E
:1034500089E89CE00E94F23740911E1750911F1797
:10346000609120177091211786E89CE00E94F23746
:1034700040912217509123176091241770912517BE
:1034800083E89CE00E94F23740912617509127175D
:10349000609128177091291780E89CE00E94F2370C
:1034A0006EE477E084E798E10F94BFBA6AE070E0D9
:1034B00084E798E1F5DBFE0164910DED1CE06623E5
:1034C00059F0772767FD709584E798E1E9DB0F5F96
:1034D0001F4FF8016491F3CFE2E6FCE064918F01A5
:1034E000662359F0772767FD709584E798E1D8DB6C
:1034F0000F5F1F4FF8016491F3CF6AE070E084E73B
:1035000098E1CEDBFE0164910DED1CE0662359F0DD
:10351000772767FD709584E798E1C2DB0F5F1F4F47
:10352000F8016491F3CF4091FA165091FB16609127
:10353000FC167091FD1689E59CE00E943A38409196
:10354000FE165091FF16609100177091011786E5E5
:103550009CE00E943A384091021750910317609105
:1035600004177091051783E59CE00E943A3840915A
:10357000061750910717609108177091091780E599
:103580009CE00E943A386EE477E084E798E10F947B
:10359000BFBA6AE070E084E798E182DBFE016491E3
:1035A0000DED1CE0662359F0772767FD709584E7E1
:1035B00098E176DB0F5F1F4FF8016491F3CFEBE1E9
:1035C000FCE064918F01662359F0772767FD7095C1
:1035D00084E798E165DB0F5F1F4FF8016491F3CF3B
:1035E0006AE070E084E798E15BDBFE0164910DED39
:1035F0001CE0662359F0772767FD709584E798E112
:103600004FDB0F5F1F4FF8016491F3CF4091F2162B
:103610005091F3166091F4167091F51682E19CE0DA
:103620000E94F2374091EA165091EB166091EC1629
:103630007091ED168FE09CE00E94F2376EE477E027
:1036400084E798E10F94BFBA6AE070E084E798E1FC
:1036500027DBFE0164910DED1CE0662359F077270E
:1036600067FD709584E798E11BDB0F5F1F4FF80142
:103670006491F3CFECE5FBE064918F01662359F090
:10368000772767FD709584E798E10ADB0F5F1F4F8E
:10369000F8016491F3CF6AE070E084E798E100DB21
:1036A000FE0164910DED1CE0662359F0772767FD5C
:1036B000709584E798E1F4DA0F5F1F4FF801649189
:1036C000F3CF4091F6165091F7166091F81670916D
:1036D000F91683E59BE00E94F2374091DA1650918B
:1036E000DB166091DC167091DD1680E59BE00E9490
:1036F000F23740912A1750912B1760912C17709137
:103700002D178DE49BE00E943A384091E6165091C7
:10371000E7166091E8167091E9168AE49BE00E9432
:10372000F2374091E2165091E3166091E4167091E1
:10373000E51687E49BE00E94F2374091DE16509137
:10374000DF166091E0167091E11684E49BE00E9420
:10375000F2376EE477E084E798E10F94BFBA6AE04D
:1037600070E084E798E19CDAFE0164910DED1CE0C5
:10377000662359F0772767FD709584E798E190DA22
:103780000F5F1F4FF8016491F3CFE2E3FBE0649118
:103790008F01662359F0772767FD709584E798E1DC
:1037A0007FDA0F5F1F4FF8016491F3CF6AE070E09A
:1037B00084E798E175DAFE0164910DED1CE0662363
:1037C00059F0772767FD709584E798E169DA0F5F14
:1037D0001F4FF8016491F3CF4091AE0A5091AF0AA8
:1037E0006091B00A7091B10A89E29BE00E94F237C1
:1037F0004091B20A5091B30A6091B40A7091B50A2F
:1038000086E29BE00E94F2374091B60A5091B70AD7
:103810006091B80A7091B90A83E29BE00E94F23786
:103820006EE477E084E798E10F94BFBA6AE070E055
:1038300084E798E135DAFE0164910DED1CE0662322
:1038400059F0772767FD709584E798E129DA0F5FD3
:103850001F4FF8016491F3CFE5E1FBE064918F0124
:10386000662359F0772767FD709584E798E118DAA9
:103870000F5F1F4FF8016491F3CF6AE070E084E7B7
:1038800098E10EDAFE0164910DED1CE0662359F01B
:10389000772767FD709584E798E102DA0F5F1F4F85
:1038A000F8016491F3CF40911D0350911E03609184
:1038B0001F037091200387E09BE00E94F237609124
:1038C00015037091160380911703909118030F94BC
:1038D000CAB1AB01BC0184E09BE00E94F237609169
:1038E0000D0370910E0380910F03909110030F94BC
:1038F000D6B1AB01BC0181E09BE00E94F237409160
:10390000210350912203609123037091240381EFDE
:103910009AE00E94F2376091190370911A03809126
:103920001B0390911C030F94CAB1AB01BC018EEE36
:103930009AE00E94F2376091110370911203809116
:103940001303909114030F94D6B1AB01BC018BEE1D
:103950009AE00E94F2376EE477E084E798E10F94F2
:10396000BFBA6AE070E084E798E19AD9FE016491F9
:103970000DED1CE0662359F0772767FD709584E70D
:1039800098E18ED90F5F1F4FF8016491F3CFEDEDF1
:10399000FAE064918F01662359F0772767FD7095EF
:1039A00084E798E17DD90F5F1F4FF8016491F3CF51
:1039B0006AE070E084E798E173D9FE0164910DED4F
:1039C0001CE0662359F0772767FD709584E798E13E
:1039D00067D90F5F1F4FF8016491F3CF40912B021D
:1039E00050912C0260912D0270912E0283ED9AE08D
:1039F0000E94F237409133025091340260913502B7
:103A0000709136028FEC9AE00E94F23740913B02AF
:103A100050913C0260913D0270913E028BEC9AE025
:103A20000E94F23740919B0A50919C0A60919D0A36
:103A300070919E0A8FEB9AE00E94F2376EE477E075
:103A400084E798E10F94BFBA6AE070E084E798E1F8
:103A500027D9FE0164910DED1CE0662359F077270C
:103A600067FD709584E798E11BD90F5F1F4FF80140
:103A70006491F3CFEDEAFAE064918F01662359F087
:103A8000772767FD709584E798E10AD90F5F1F4F8C
:103A9000F8016491F3CF6AE070E084E798E100D91F
:103AA000FE0164910DED1CE0662359F0772767FD58
:103AB000709584E798E1F4D80F5F1F4FF801649187
:103AC000F3CF4091970A5091980A6091990A7091AA
:103AD0009A0A83E99AE00E94F2374091930A509142
:103AE000940A6091950A7091960A8EE79AE00E9476
:103AF000F2374091910A5091920A60E070E081E7BC
:103B00009AE00E943A386EE477E084E798E10F94F7
:103B1000BFBA6AE070E084E798E1C2D8FE01649120
:103B20000DED1CE0662359F0772767FD709584E75B
:103B300098E1B6D80F5F1F4FF8016491F3CFE7E625
:103B4000FAE064918F01662359F0772767FD70953D
:103B500084E798E1A5D80F5F1F4FF8016491F3CF78
:103B60006AE070E084E798E19BD8FE0164910DED76
:103B70001CE0662359F0772767FD709584E798E18C
:103B80008FD80F5F1F4FF8016491F3CF4091150B51
:103B90005091160B662757FD6095762F8AE59AE0BF
:103BA0000E943A384091130B5091140B662757FD31
:103BB0006095762F8BE49AE00E943A3840910F0B83
:103BC0005091100B662757FD6095762F8FE39AE092
:103BD0000E943A384091110B5091120B662757FD05
:103BE0006095762F81E39AE00E943A3862E873E0AC
:103BF00084E798E10F94BFBA6AE070E084E798E147
:103C00004FD8FE0164910DED1CE0662359F0772733
:103C100067FD709584E798E143D80F5F1F4FF80167
:103C20006491F3CFE7E2FAE064918F01662359F0E3
:103C3000772767FD709584E798E132D80F5F1F4FB3
:103C4000F8016491F3CF6AE070E084E798E128D846
:103C5000FE0164910DED1CE0662359F0772767FDA6
:103C6000709584E798E11CD80F5F1F4FF8016491AD
:103C7000F3CF40910D0B50910E0B662757FD6095C9
:103C8000762F8AE19AE00E943A3840910B0B5091CE
:103C90000C0B662757FD6095762F8BE09AE00E940B
:103CA0003A384091070B5091080B662757FD6095F5
:103CB000762F8FEF99E00E943A384091090B50918E
:103CC0000A0B662757FD6095762F81EF99E00E94D9
:103CD0003A3862E873E084E798E10F94BFBA6AE08B
:103CE00070E084E798E10E945016FE0164910DEDAA
:103CF0001CE0662361F0772767FD709584E798E103
:103D00000E9450160F5F1F4FF8016491F2CFEAEE48
:103D1000F9E064918F01662361F0772767FD709564
:103D200084E798E10E9450160F5F1F4FF8016491DD
:103D3000F2CF6AE070E084E798E10E945016FE013D
:103D400064910DED1CE0662361F0772767FD7095A7
:103D500084E798E10E9450160F5F1F4FF8016491AD
:103D6000F2CF4091600A5091610A662757FD609535
:103D7000762F8FED99E00E943A3840915E0A50917B
:103D80005F0A662757FD6095762F8DEC99E00E94BB
:103D90003A384091540A5091550A662757FD60956C
:103DA000762F88EB99E00E943A384091520A509160
:103DB000530A662757FD6095762F89EA99E00E949D
:103DC0003A384091500A5091510A662757FD609544
:103DD000762F88E999E00E943A3840914E0A509136
:103DE0004F0A662757FD6095762F87E899E00E9475
:103DF0003A382091460A3091470A4091480A50913A
:103E0000490A60914A0A70914B0A80914C0A90913C
:103E10004D0A0F94E9BE20E034E244E759E40F94E0
:103E200016BEAB01BC018EE699E00E94F2372091EC
:103E30003E0A30913F0A4091400A5091410A6091F8
:103E4000420A7091430A8091440A9091450A0F9466
:103E5000E9BE20E034E244E759E40F9416BEAB011A
:103E6000BC0185E599E00E94F2372091360A309135
:103E7000370A4091380A5091390A60913A0A709194
:103E80003B0A80913C0A90913D0A0F94E9BE20E0E4
:103E900034E244E759E40F9416BEAB01BC018DE354
:103EA00099E00E94F23720912E0A30912F0A40911A
:103EB000300A5091310A6091320A7091330A809130
:103EC000340A9091350A0F94E9BE20E030E04AE7C9
:103ED00054E40F9416BEAB01BC0184E299E00E9449
:103EE000F2372091260A3091270A4091280A5091F2
:103EF000290A60912A0A70912B0A80912C0A9091CC
:103F00002D0A0F94E9BE20E030E04AE754E40F9414
:103F100016BEAB01BC018CE099E00E94F23765E867
:103F200073E084E798E10F94BFBA6AE070E084E739
:103F300098E10E945016FE0164910DED1CE066238D
:103F400061F0772767FD709584E798E10E9450162D
:103F50000F5F1F4FF8016491F2CFEEEEF8E064912D
:103F60008F01662361F0772767FD709584E798E1FC
:103F70000E9450160F5F1F4FF8016491F2CF6AE064
:103F800070E084E798E10E945016FE0164910DED07
:103F90001CE0662361F0772767FD709584E798E160
:103FA0000E9450160F5F1F4FF8016491F2CF4091AD
:103FB000AC0B5091AD0B662757FD6095762F8AEDBF
:103FC00098E00E943A384091A80B5091A90B60915B
:103FD000AA0B7091AB0B85EC98E00E943A384091A7
:103FE000A60B5091A70B662757FD6095762F82EBA5
:103FF00098E00E943A386EE477E084E798E10F9405
:10400000BFBA6AE070E084E798E10E945016FE01B2
:1040100064910DED1CE0662361F0772767FD7095D4
:1040200084E798E10E9450160F5F1F4FF8016491DA
:10403000F2CFEEE9F8E064918F01662361F0772713
:1040400067FD709584E798E10E9450160F5F1F4F3F
:10405000F8016491F2CF6AE070E084E798E10E9491
:104060005016FE01C4910DED1CE0CC2369F06C2FBD
:10407000772767FD709584E798E10E9450160F5FDF
:104080001F4FF801C491F1CF4091560A5091570A41
:10409000662757FD6095762F82E898E00E943A38AF
:1040A0004091580A5091590A662757FD6095762F1E
:1040B00087E798E00E943A386EE477E084E798E179
:1040C0000F94BFBA6AE070E084E798E1DF91CF9186
:1040D0001F910F910C9450160F931F93CF93DF9362
:1040E0000DED1CE0F8016491E801662359F0772793
:1040F00067FD709584E798E10E9450162196FE01B5
:104100006491F3CFE7E6F8E06491EF01662359F09C
:10411000772767FD709584E798E10E9450162196F5
:10412000FE016491F3CF6AE070E084E798E10E94B9
:104130005016F8010491CDEDDCE0002361F0602F12
:10414000772767FD709584E798E10E9450162196C5
:10415000FE010491F2CF4091610B5091620B60918E
:10416000630B7091640B82E598E00E94F2374091F6
:104170005D0B50915E0B60915F0B7091600B8DE356
:1041800098E00E94F2374091590B50915A0B609180
:104190005B0B70915C0B88E298E00E94F2374091D3
:1041A000570B5091580B662757FD6095762F82E18B
:1041B00098E00E943A384091530B5091540B609113
:1041C000550B7091560B8DEF97E00E94F23740919E
:1041D0004F0B5091500B6091510B7091520B86EE2A
:1041E00097E00E943A3860914D0B70914E0B8827F2
:1041F00077FD8095982F0F94EFBEAB01BC0186ED43
:1042000097E00E94F23760914B0B70914C0B88271E
:1042100077FD8095982F0F94EFBEAB01BC0186EC23
:1042200097E00E94F2376091490B70914A0B882702
:1042300077FD8095982F0F94EFBEAB01BC0184EB06
:1042400097E00E94F2376091470B7091480B8827E6
:1042500077FD8095982F0F94EFBEAB01BC0181EAEA
:1042600097E00E94F2376091450B7091460B8827CA
:1042700077FD8095982F0F94EFBEAB01BC018EE8BF
:1042800097E00E94F23760912F0B7091300B8827D6
:1042900077FD8095982F0F94EFBEAB01BC018FE6A0
:1042A00097E00E94F2376EE477E084E798E10F949C
:1042B000BFBA6AE070E084E798E1DF91CF911F9187
:1042C0000F910C945016AF92BF92CF92DF92EF9263
:1042D000FF920F931F93CF93DF93CDB7DEB7E09795
:1042E0000FB6F894DEBF0FBECDBF80E1E5E2F3E08C
:1042F000DE01919601900D928A95E1F780E1E5E368
:10430000F3E0DE01519601900D928A95E1F780E18C
:10431000E5E4F3E0DE01119601900D928A95E1F754
:104320006E0121E2C20ED11C8AE0E82E87E1F82E50
:104330008E010F5E1F4F6AE177E1AE014F5F5F4F65
:104340009AEFA92E96E1B92E20E030E0F601819196
:104350009191A191B1916F01F70181939193A193F3
:10436000B1937F01F80181919191A191B1918F0158
:10437000FB0181939193A193B193BF01FA018191C4
:104380009191A191B191AF01F50181939193A19385
:10439000B1935F012F5F3F4F24303105B9F60F9481
:1043A0009B9080E090E0AAEFB4E48093F2169093A3
:1043B000F316A093F416B093F5168093EA16909333
:1043C000EB16A093EC16B093ED161092F616109221
:1043D000F7161092F8161092F91680E29EE4A0E00B
:1043E000B0E080932A1790932B17A0932C17B093CB
:1043F0002D171092DA161092DB161092DC1610921E
:10440000DD1680E090E0A0EAB0E48093E616909399
:10441000E716A093E816B093E9164DEC5CEC6CEC53
:104420007EE34093E2165093E3166093E416709394
:10443000E5168093DE169093DF16A093E016B093F6
:10444000E1161092B60A1092B70A1092B80A1092AA
:10445000B90A1092B20A1092B30A1092B40A1092DA
:10446000B50A1092AE0A1092AF0A1092B00A1092DA
:10447000B10A87ED90E09093120B8093110B90930B
:10448000160B8093150B4AEA50E05093140B40939F
:10449000130B21E430E03093100B20930F0B90931B
:1044A000020B8093010B9093060B8093050B5093A6
:1044B000040B4093030B3093000B2093FF0A90935F
:1044C0000A0B8093090B90930E0B80930D0B509366
:1044D0000C0B40930B0B3093080B2093070B90931E
:1044E000FA0A8093F90A9093FE0A8093FD0A50938A
:1044F000FC0A4093FB0A3093F80A2093F70A809154
:10450000AC0B9091AD0B01978A379105D8F42091AF
:10451000A60B3091A70B2F30F7E23F079CF4809158
:10452000A80B9091A90BA091AA0BB091AB0B1216FE
:10453000130644F40197A109B1098E339244AF40A8
:10454000B10580F01092AD0B1092AC0B1092A80B3D
:104550001092A90B1092AA0B1092AB0B1092A70B02
:104560001092A60B1092590A1092580A1092570AEC
:104570001092560A80E697E0909371028093700241
:10458000EDEDFCE064918F01662361F0772767FD14
:10459000709584E798E10E9450160F5F1F4FF80155
:1045A0006491F2CFE3E3F7E064918F01662361F059
:1045B000772767FD709584E798E10E9450160F5F9A
:1045C0001F4FF8016491F2CF6AE070E084E798E150
:1045D000E0960FB6F894DEBF0FBECDBFDF91CF914E
:1045E0001F910F91FF90EF90DF90CF90BF90AF9011
:1045F0000C945016CF92DF92EF92FF92CF93DF93FD
:104600001092620A1092630A1092640A1092650A6C
:104610001092660A1092670A1092680A1092690A4C
:1046200010926A0A10926B0A10926C0A10926D0A2C
:1046300010926E0A10926F0A1092700A1092710A0C
:104640008DEC9CECA8E9B3E480932B0290932C02B0
:10465000A0932D02B0932E0280E090E0A0E8BEE38C
:104660008093330290933402A0933502B0933602C4
:1046700010923B0210923C0210923D0210923E02B8
:1046800083E393E3A3E3B0EC80939B0A90939C0AAB
:10469000A0939D0AB0939E0A2CE5C22E2FE8D22E3D
:1046A00022E7E22E21E4F22EC0921D03D0921E03D7
:1046B000E0921F03F092200361EE7AE784E99FE322
:1046C0000F94C4B16093150370931603809317037E
:1046D000909318036FE175E885E492E40F94D0B1EC
:1046E00060930D0370930E0380930F039093100358
:1046F000C0922103D0922203E0922303F09224037C
:1047000061EE7AE784E99FE30F94C4B160931903E3
:1047100070931A0380931B0390931C036FE175E859
:1047200085E492E40F94D0B1609311037093120367
:10473000809313039093140380E090E0A0E8BFE31C
:104740008093050390930603A0930703B093080397
:104750008093090390930A03A0930B03B0930C0377
:10476000EDEDFCE06491EF01662359F0772767FDDA
:10477000709584E798E10E9450162196FE0164919D
:10478000F3CFE3E0F7E06491EF01662359F0772778
:1047900067FD709584E798E10E9450162196FE010E
:1047A0006491F3CF6AE070E084E798E1DF91CF9104
:1047B000FF90EF90DF90CF900C9450168F929F92C5
:1047C000AF92BF92CF92DF92EF92FF920F931F931F
:1047D000CF93DF93CDB7DEB768970FB6F894DEBFFF
:1047E0000FBECDBF84E690E0988F8F8B86E591E376
:1047F000A2E3B0E089839A83AB83BC8344E0BE012B
:104800006B5F7F4FCE0147960E947D1643E050E0DC
:10481000BE016B5F7F4FCE0101960F9416C9892BA5
:1048200009F0CFC340E16AE077E1CE0147960E94EC
:104830007D1640E16AE177E1CE0147960E947D1640
:1048400040E16AEF76E1CE0147960E947D160F9413
:104850009B9044E062EF76E1CE0147960E947D1680
:1048600044E06AEE76E1CE0147960E947D1644E070
:1048700066EF76E1CE0147960E947D1644E06AED30
:1048800076E1CE0147960E947D1644E06AE277E128
:10489000CE0147960E947D1644E066EE76E1CE0199
:1048A00047960E947D1644E062EE76E1CE0147967F
:1048B0000E947D1644E06EED76E1CE0147960E949F
:1048C0007D164CE06EEA7AE0CE0147960E947D1696
:1048D00042E0BE016B5E7F4FCE0147960E947D167F
:1048E00042E0BE016D5E7F4FCE0147960E947D166D
:1048F00042E0BE016F5E7F4FCE0147960E947D165B
:1049000042E0BE01615F7F4FCE0147960E947D1657
:1049100042E0BE01635F7F4FCE0147960E947D1645
:1049200042E0BE01655F7F4FCE0147960E947D1633
:1049300044E06BE97AE0CE0147960E947D1644E0A0
:104940006BE272E0CE0147960E947D1644E063E37D
:1049500072E0CE0147960E947D1644E06BE372E060
:10496000CE0147960E947D1642E061E17BE0CE01D8
:1049700047960E947D1642E065E17BE0CE014796B6
:104980000E947D1642E063E17BE0CE0147960E94E3
:104990007D1642E06FE07BE0CE0147960E947D16D7
:1049A00042E061E07BE0CE0147960E947D1642E046
:1049B00065E07BE0CE0147960E947D1642E063E011
:1049C0007BE0CE0147960E947D1642E06FEF7AE0D1
:1049D000CE0147960E947D1642E069E07BE0CE0161
:1049E00047960E947D1642E06DE07BE0CE0147963F
:1049F0000E947D1642E06BE07BE0CE0147960E946C
:104A00007D1642E067E07BE0CE0147960E947D166E
:104A100042E069EF7AE0CE0147960E947D1642E0BF
:104A20006DEF7AE0CE0147960E947D1642E06BEF73
:104A30007AE0CE0147960E947D1642E067EF7AE069
:104A4000CE0147960E947D1644E06DE173E0CE01F1
:104A500047960E947D1644E065E173E0CE014796DB
:104A60000E947D1644E06DE073E0CE0147960E94FF
:104A70007D1644E061E273E0CE0147960E947D1608
:104A800044E069E173E0CE0147960E947D1644E060
:104A900061E173E0CE0147960E947D1642E060E638
:104AA0007AE0CE0147960E947D1642E064E57AE006
:104AB000CE0147960E947D1642E062E57AE0CE0183
:104AC00047960E947D1642E060E57AE0CE01479667
:104AD0000E947D1642E06EE57AE0CE0147960E9484
:104AE0007D1642E06EE47AE0CE0147960E947D1684
:104AF00042E0BE01675F7F4FCE0147960E947D1660
:104B000042E06CEA7BE0CE0147960E947D1644E0CD
:104B100068EA7BE0CE0147960E947D1642E066EA95
:104B20007BE0CE0147960E947D1642E068E57AE080
:104B3000CE0147960E947D1642E066E57AE0CE01FE
:104B400047960E947D1648E066E47AE0CE014796DB
:104B50000E947D1648E06EE37AE0CE0147960E94FF
:104B60007D1648E066E37AE0CE0147960E947D1606
:104B700048E06EE27AE0CE0147960E947D1648E05A
:104B800066E27AE0CE0147960E947D1642E060E739
:104B900072E0CE0147960E947D1642E068E772E01F
:104BA000CE0147960E947D1644E061E67BE0CE018F
:104BB00047960E947D1644E06DE57BE0CE01479666
:104BC0000E947D1644E069E57BE0CE0147960E9495
:104BD0007D1642E067E57BE0CE0147960E947D1698
:104BE00044E063E57BE0CE0147960E947D1644E0F9
:104BF0006FE47BE0CE0147960E947D1642E06DE4B3
:104C00007BE0CE0147960E947D1642E06BE47BE09C
:104C1000CE0147960E947D1642E069E47BE0CE011A
:104C200047960E947D1642E067E47BE0CE014796FE
:104C30000E947D1642E065E47BE0CE0147960E942B
:104C40007D1641E06EE27BE0CE0147960E947D1624
:104C500042E061E37BE0CE0147960E947D1642E090
:104C600063E37BE0CE0147960E947D1642E065E358
:104C70007BE0CE0147960E947D1642E067E37BE031
:104C8000CE0147960E947D1642E069E37BE0CE01AB
:104C900047960E947D1642E06BE37BE0CE0147968B
:104CA0000E947D1642E06DE37BE0CE0147960E94B4
:104CB0007D1642E06FE37BE0CE0147960E947D16B1
:104CC00042E061E47BE0CE0147960E947D1642E01F
:104CD00063E47BE0CE0147960E947D1644E06EEED1
:104CE00076E1CE0147960E947D1642E06EE77BE0BA
:104CF000CE0147960E947D1644E067E97AE0CE0136
:104D000047960E947D1644E063E97AE0CE0147961B
:104D10000E947D1644E062E67AE0CE0147960E944A
:104D20007D1644E066E67AE0CE0147960E947D1645
:104D300044E06AE67AE0CE0147960E947D1644E0A0
:104D40006EE67AE0CE0147960E947D1642E066E765
:104D500072E0CE0147960E947D1644E062E772E061
:104D6000CE0147960E947D1642E06FE27BE0CE01C5
:104D700047960E947D1642E061E97AE0CE014796AF
:104D80000E947D1642E062E472E0CE0147960E94E6
:104D90007D160F94D09BEDEDFCE064918F016623AE
:104DA00061F0772767FD709584E798E10E945016BF
:104DB0000F5F1F4FF8016491F2CF8091AC0B90917F
:104DC000AD0B01978A379105D8F42091A60B30914D
:104DD000A70B2F30F7E23F079CF48091A80B90912E
:104DE000A90BA091AA0BB091AB0B1216130644F4B9
:104DF0000197A109B1098E339244AF40B10580F00B
:104E00001092AD0B1092AC0B1092A80B1092A90B44
:104E10001092AA0B1092AB0B1092A70B1092A60B3C
:104E20008090970A9090980AA090990AB0909A0A58
:104E300020E030E0A901C501B4010F949EC018160E
:104E40005CF420E030E040E85FE3C501B4010F947A
:104E50009EC087FF31C00AC020E030E040E85FEB31
:104E6000C501B4010F940FBE181634F5C090930A13
:104E7000D090940AE090950AF090960A20E030E0F5
:104E8000A901C701B6010F949EC018165CF420E07A
:104E900030E040E85FE3C701B6010F949EC087FF92
:104EA0000BC01BC020E030E040E85FEBC701B6015B
:104EB0000F940FBE18168CF01092970A1092980A51
:104EC0001092990A10929A0A1092930A1092940AD8
:104ED0001092950A1092960A10C0A5019401C5017E
:104EE000B4010F941EC28111E7CFA7019601C7013B
:104EF000B6010F941EC28111DFCF6091910A7091AB
:104F0000920A693E83E0780708F060C080E090E094
:104F10000F94EDBE9B01AC010F941EC2811156C0CF
:104F20006091620A7091630A8091640A9091650AA7
:104F30009B01AC010F941EC281114DC06091660AA5
:104F40007091670A8091680A9091690A9B01AC018F
:104F50000F941EC281113FC060916A0A70916B0A62
:104F600080916C0A90916D0A9B01AC010F941EC256
:104F7000811131C060916E0A70916F0A8091700A40
:104F80009091710A9B01AC010F941EC2811123C044
:104F9000E5E5F7E064918F01662361F0772767FD0F
:104FA000709584E798E10E9450160F5F1F4FF8013B
:104FB0006491F2CF6AE070E084E798E10E945016B5
:104FC0002DC081D917DB0E94A31628C01092920A27
:104FD0001092910AA5CF1092620A1092630A109261
:104FE000640A1092650A1092660A1092670A10927B
:104FF000680A1092690A10926A0A10926B0A10925B
:105000006C0A10926D0A10926E0A10926F0A10923A
:10501000700A1092710A0E94A316BACF68960FB652
:10502000F894DEBF0FBECDBFDF91CF911F910F91DE
:10503000FF90EF90DF90CF90BF90AF909F908F90B8
:105040000895CF93DF93823D944009F087C010927A
:105050005F0A10925E0A10924F0A10924E0A109246
:10506000530A1092520A1092510A1092500A10924A
:10507000610A1092600A1092550A1092540A109216
:10508000460A1092470A1092480A1092490A109252
:105090004A0A10924B0A10924C0A10924D0A109232
:1050A0003E0A10923F0A1092400A1092410A109252
:1050B000420A1092430A1092440A1092450A109232
:1050C000360A1092370A1092380A1092390A109252
:1050D0003A0A10923B0A10923C0A10923D0A109232
:1050E0002E0A10922F0A1092300A1092310A109252
:1050F000320A1092330A1092340A1092350A109232
:10510000260A1092270A1092280A1092290A109251
:105110002A0A10922B0A10922C0A10922D0A80E66D
:1051200097E09093710280937002E2EFF6E0649151
:10513000EF01662359F0772767FD709584E798E1C2
:105140000E9450162196FE016491F3CF6AE070E050
:1051500084E798E1DF91CF910C945016DF91CF91C5
:1051600008950F931F93F9019C01215031092A37AB
:10517000310508F042C09F01215031092E303742DD
:10518000E0F58A019B0101501109210931090E3313
:1051900012442F40310588F59093AD0B8093AC0BF2
:1051A0004093A80B5093A90B6093AA0B7093AB0B81
:1051B000F093A70BE093A60B4AE050E0BC0184E714
:1051C00098E10F9475BB4091A80B5091A90B609189
:1051D000AA0B7091AB0B2AE030E084E798E10F94C2
:1051E0008BBB6091A60B7091A70B4AE050E084E75F
:1051F00098E11F910F910D9475BB1F910F91089528
:10520000CF93DF93FC01E659F109E63AF105C8F0C6
:10521000EEEDF6E06491EF01662359F0772767FD24
:10522000709584E798E10E9450162196FE016491E2
:10523000F3CF6AE070E084E798E1DF91CF910C94BE
:105240005016FB01E659F109E63AF10588F0EAEC5F
:10525000F6E06491EF01662361F3772767FD7095AF
:1052600084E798E10E9450162196FE016491F3CFE5
:10527000FA01E659F109E63AF10588F0E6EBF6E0C5
:105280006491EF016623A9F2772767FD709584E7A3
:1052900098E10E9450162196FE016491F3CFF90126
:1052A0003597E937F10590F0E2EAF6E06491EF0115
:1052B000662309F4BECF772767FD709584E798E1F0
:1052C0000E9450162196FE016491F2CF9093160B26
:1052D0008093150B7093140B6093130B5093120B68
:1052E0004093110B3093100B20930F0BEAE9F6E07B
:1052F0006491EF01662309F49CCF772767FD7095D1
:1053000084E798E10E9450162196FE016491F2CF45
:10531000CF93DF93FC01E659F109E63AF105C8F0B5
:10532000E6E8F6E06491EF01662359F0772767FD20
:10533000709584E798E10E9450162196FE016491D1
:10534000F3CF6AE070E084E798E1DF91CF910C94AD
:105350005016FB01E659F109E63AF10588F0E2E75B
:10536000F6E06491EF01662361F3772767FD70959E
:1053700084E798E10E9450162196FE016491F3CFD4
:10538000FA01E659F109E63AF10588F0EEE5F6E0B2
:105390006491EF016623A9F2772767FD709584E792
:1053A00098E10E9450162196FE016491F3CFF90115
:1053B0003597E937F10590F0EAE4F6E06491EF0102
:1053C000662309F4BECF772767FD709584E798E1DF
:1053D0000E9450162196FE016491F2CF90930E0B1D
:1053E00080930D0B70930C0B60930B0B50930A0B77
:1053F0004093090B3093080B2093070BE2E4F6E08F
:105400006491EF01662309F49CCF772767FD7095BF
:1054100084E798E10E9450162196FE016491F2CF34
:10542000AF92BF92CF92DF92EF92FF920F931F93B2
:1054300060932B0270932C0280932D0290932E0286
:105440002093330230933402409335025093360256
:10545000E0923B02F0923C0200933D0210933E0228
:10546000A0929B0AB0929C0AC0929D0AD0929E0A7A
:105470001F910F91FF90EF90DF90CF90BF90AF9072
:1054800008958F929F92AF92BF92CF92DF92EF9248
:10549000FF920F931F934B015C0169017A0120E099
:1054A00030E040E85FE30F949EC087FF1EC020E01D
:1054B00030E040E85FE3C701B6010F949EC087FF6C
:1054C00014C08092970A9092980AA092990AB0927A
:1054D0009A0AC092930AD092940AE092950AF092A6
:1054E000960A1093920A0093910A1F910F91FF90D0
:1054F000EF90DF90CF90BF90AF909F908F900895E6
:105500002F923F924F925F926F927F928F929F92D3
:10551000AF92BF92CF92DF92EF92FF920F931F93C1
:10552000CF93DF93CDB7DEB73C01CB01BA011801B1
:105530002901F3016083718382839383048315833C
:1055400026833783C086D186E286F3868486958655
:10555000A686B78611E020E030E0A9010F940FBEC7
:10556000811101C010E020E030E0A901C201B101C9
:105570000F940FBE882311F092E001C090E0192B28
:1055800020E030E0A901C701B6010F940FBE8823C7
:1055900011F094E001C090E0192B20E030E0A90167
:1055A000C501B4010F940FBE882311F088E001C03B
:1055B00080E0182BF30115A7DF91CF911F910F9178
:1055C000FF90EF90DF90CF90BF90AF909F908F9023
:1055D0007F906F905F904F903F902F9008956F92C3
:1055E0007F928F929F92AF92BF92CF92DF92EF9273
:1055F000FF920F931F93CF93DF93CDB7DEB73C019C
:10560000FC0114A67DDFF301108A118A128A138A25
:10561000148A158A168A178A108E118E128E138E8E
:10562000148E158E168E178E10A211A212A213A21E
:1056300014A215A216A217A210A611A612A613A6AE
:10564000DF91CF911F910F91FF90EF90DF90CF905E
:10565000BF90AF909F908F907F906F9008952F9202
:105660003F924F925F926F927F928F929F92AF92F2
:10567000BF92CF92DF92EF92FF920F931F93CF933F
:10568000DF9300D01F92CDB7DEB71C0149835A8348
:105690006B837C832801390120E030E04CE053E447
:1056A000C701B6010F9470C14B015C0120E030E0EE
:1056B00041E953E4C301B2010F9470C19B01AC01F5
:1056C000C501B4010F9435BD4B015C0120E030E011
:1056D00041E953E469817A818B819C810F9470C187
:1056E0009B01AC01C501B4010F9436BD4B015C01B7
:1056F00020E030E04CE053E469817A818B819C8129
:105700000F9470C19B01AC01C501B4010F9435BD6C
:105710004B015C0120E030E040E251E4C301B20102
:105720000F9470C19B01AC01C501B4010F9436BD4B
:105730004B015C0120E030E040E251E469817A8174
:105740008B819C810F9470C19B01AC01C501B40198
:105750000F9435BD20EA3AE847EA5AE40F9416BEA2
:105760004B015C01F101608B718B828B938B20E08C
:1057700038EC4FEA56E40F9470C19B01AC01C301B1
:10578000B2010F9435BD2B013C0120E030E048EC24
:1057900052E4C501B4010F9470C19B01AC01C30177
:1057A000B2010F9436BD29813A814B815C810F94FF
:1057B00035BD20E030E04CE053E40F9416BE2B01E1
:1057C0003C01F101648B758B868B978B20E032E472
:1057D00044EA57E4C501B4010F9470C19B01AC01C8
:1057E000C701B6010F9435BD6B017C0120E030E0AC
:1057F00041E953E4C301B2010F9470C19B01AC01B4
:10580000C701B6010F9435BDF101608F718F828F92
:10581000938F0F900F900F900F90DF91CF911F916A
:105820000F91FF90EF90DF90CF90BF90AF909F903F
:105830008F907F906F905F904F903F902F90089542
:105840008F929F92AF92BF92CF92DF92EF92FF9290
:10585000CF93DF93EC016A017B019A01AB01C70191
:10586000B6010F9470C1288939894A895B890F94E0
:1058700070C14B015C012C893D894E895F89C7014C
:10588000B6010F9470C19B01AC01C501B4010F9426
:1058900036BD288D398D4A8D5B8D0F9436BDDF91D5
:1058A000CF91FF90EF90DF90CF90BF90AF909F90FF
:1058B0008F9008950F931F93CF93DF93EC018B018B
:1058C000CA01B901F801EE0FFF1FEE0FFF1FEC0F29
:1058D000FD1F608371838283938320E030E0A90100
:1058E0000F940FBE2DA5882349F081E090E0002E93
:1058F00001C0880F0A94EAF7822B08C081E090E08B
:1059000001C0880F0A95EAF7809582238DA7DF9161
:10591000CF911F910F9108950F931F93CF93DF9312
:10592000EC01ECEEFCE064918F01662361F07727D7
:1059300067FD709584E798E10E9450160F5F1F4F36
:10594000F8016491F2CF488159816A817B8122E01C
:1059500030E084E798E10F9498BCE9EEFCE06491B4
:105960008F01662361F0772767FD709584E798E1E2
:105970000E9450160F5F1F4FF8016491F2CF4C81C7
:105980005D816E817F8122E030E084E798E10F94B1
:1059900098BCE6EEFCE064918F01662361F0772706
:1059A00067FD709584E798E10E9450160F5F1F4FC6
:1059B000F8016491F2CF488559856A857B8522E09C
:1059C00030E084E798E10F9498BCE3EEFCE064914A
:1059D0008F01662361F0772767FD709584E798E172
:1059E0000E9450160F5F1F4FF8016491F2CF4C8553
:1059F0005D856E857F8522E030E084E798E10F9435
:105A000098BC6EE477E084E798E10F94BFBA6AE04F
:105A100070E084E798E1DF91CF911F910F910C9492
:105A20005016FF920F931F93CF93DF938C01EB01DE
:105A3000FC012081318142815381688179818A8191
:105A40009B810F940FBEF82EFF1CFF24FF1CF80152
:105A500024813581468157816C817D818E819F8132
:105A60000F940FBE87FF03C0FF2DF260FF2EF801D9
:105A70002085318542855385688579858A859B8512
:105A80000F940FBE87FF03C0FF2DF460FF2EF801B7
:105A900024853585468557856C857D858E859F85D2
:105AA0000F940FBE87FF03C0FF2DF860FF2E8F2DD0
:105AB000DF91CF911F910F91FF9008958F929F9248
:105AC000AF92BF92CF92DF92EF92FF920F931F930C
:105AD000812C912C54017501640195018401B5015B
